:020000040800F2
:1000000000000220F9290008A9290008B1290008E8
:10001000B3290008B5290008B7290008000000002E
:100020000000000000000000000000007121000836
:10003000B9290008000000001122000875220008FC
:10004000492A0008492A0008492A0008492A0008C4
:10005000492A0008492A0008492A0008492A0008B4
:10006000492A0008492A0008492A0008492A0008A4
:10007000492A0008492A0008492A0008492A000894
:10008000BD290008492A0008492A0008492A000811
:10009000492A0008492A0008492A0008492A000874
:1000A000492A0008492A0008492A0008492A000864
:1000B000492A0008492A0008492A0008492A000854
:1000C000492A0008492A0008492A0008492A000844
:1000D000492A0008492A0008492A0008492A000834
:1000E000492A0008492A0008492A0008492A000824
:1000F000492A0008CD290008492A0008492A000891
:10010000492A0008492A0008492A0008492A000803
:10011000492A0008492A0008492A0008492A0008F3
:10012000492A0008492A0008492A0008492A0008E3
:10013000492A00080000000000000000492A0008C9
:10014000492A0008492A0008492A0008492A0008C3
:10015000492A0008492A0008492A0008492A0008B3
:10016000492A0008492A0008492A0008492A0008A3
:10017000492A0008492A0008000000000000000089
:08018000492A0008492A000881
:1001900010B5054C237833B9044B13B10448AFF3C1
:1001A00000800123237010BD10000020000000001B
:1001B000A42A00080C4B43B10C480D4910B5AFF30D
:1001C00000800C48036823B910BD0A48036833B99E
:1001D0007047094B002BF7D0BDE810401847064B7D
:1001E000002BF5D0184700BF00000000A42A00082B
:1001F00014000020100000200000000053B94AB98C
:10020000002908BF00281CBF4FF0FF314FF0FF301E
:1002100000F07AB9ADF1080C6DE904CE00F006F8F3
:10022000DDF804E0DDE9022304B070472DE9F04772
:100230008C460D460446089E002B51D18A42174633
:100240006DD9B2FA82FEBEF1000F0BD0CEF1200CB8
:1002500001FA0EF520FA0CFC02FA0EF74CEA050C36
:1002600000FA0EF44FEA174A250CBCFBFAF81FFA05
:1002700087F90AFB18CC45EA0C4508FB09F3AB42A9
:100280000AD9ED1908F1FF3280F02381AB4240F228
:100290002081A8F102083D44ED1AA4B2B5FBFAF0A2
:1002A0000AFB105544EA054400FB09F9A14509D9A8
:1002B000E41900F1FF3380F00A81A14540F2078183
:1002C00002383C44A4EB090440EA08400021002E17
:1002D00061D024FA0EF4002334607360BDE8F08727
:1002E0008B4207D9002E54D0002186E82100084611
:1002F000BDE8F087B3FA83F1002940F08E80AB426D
:1003000002D3824200F2FA80841A65EB03050120D1
:10031000AC46002E3FD086E81010BDE8F08712B939
:100320000127B7FBF2F7B7FA87FEBEF1000F34D111
:10033000EB1B3A0C1FFA87FC0121B3FBF2F8250CEA
:1003400002FB183345EA03450CFB08F3AB4207D91F
:10035000ED1908F1FF3002D2AB4200F2D1808046A5
:10036000ED1AA3B2B5FBF2F002FB105543EA0544C7
:100370000CFB00FCA44507D9E41900F1FF3302D2BD
:10038000A44500F2B8801846A4EB0C0440EA0840EB
:100390009DE731463046BDE8F087CEF1200405FAEE
:1003A0000EF307FA0EF720FA04F83A0C25FA04F4D3
:1003B00048EA0308B4FBF2F14FEA184502FB114486
:1003C0001FFA87FC45EA044501FB0CF3AB4200FA37
:1003D0000EF409D9ED1901F1FF3080F08A80AB42AB
:1003E00040F2878002393D44EB1A1FFA88F5B3FBCF
:1003F000F2F002FB103345EA034500FB0CF3AB427D
:1004000007D9ED1900F1FF386FD2AB426DD9023830
:100410003D44EB1A40EA01418FE7C1F1200722FA7F
:1004200007F88B4005FA01F448EA030320FA07FEB7
:100430004FEA134CFD404EEA040EB5FBFCF94FEABF
:100440001E440CFB19551FFA83F844EA054509FBC5
:1004500008F4AC4202FA01F200FA01FA08D9ED18E8
:1004600009F1FF3043D2AC4241D9A9F102091D4440
:100470002D1B1FFA8EFEB5FBFCF00CFB10554EEA4F
:10048000054400FB08F8A04507D9E41800F1FF3542
:1004900029D2A04527D902381C4440EA0940A4EBE0
:1004A0000804A0FB02894C45C6464D4615D312D020
:1004B00056B1BAEB0E0364EB050404FA07F7CB4020
:1004C0001F43CC40376074600021BDE8F0871846B8
:1004D000F8E69046E0E6C245EAD2B8EB020E69EBD8
:1004E00003050138E4E72846D7E7404691E781460F
:1004F000BEE7014678E702383C4445E7084608E78E
:10050000A8F102083D442BE7704700BF08B502215F
:10051000034800F065FB4FF4FA7001F061FDF6E767
:100520000008024008B50421034800F059FB4FF4CD
:100530007A7001F055FDF6E70008024030B583B04F
:100540000B4C01940125009500234FF4807209495A
:10055000094801F061FB04340194009500234FF435
:1005600080720649064801F057FB03B030BD00BF5A
:100570002C000020F82A00080D050008042B0008B4
:100580002505000808B50B4B1A6842F400721A6082
:100590001A6842F480621A601A6842F480721A6023
:1005A000032000F01BF8002002F0C0F902F048F927
:1005B000002008BD003C0240034A1168034B1B7831
:1005C0000B441360704700BF7840002000000020FB
:1005D000014B1868704700BF78400020074AD36875
:1005E00023F4E0631B041B0C000200F4E0601843DA
:1005F00040F0BF6040F40030D060704700ED00E094
:1006000030B4164BDB68C3F30223C3F10704042C98
:1006100028BF04241D1D062D17D9033B012505FA0B
:1006200004F4013C2140994005FA03F3013B1340D7
:10063000194300280BDB0901C9B200F1604000F545
:10064000614080F8001330BC70470023E6E700F0FB
:100650000F000901C9B2024B1954F4E700ED00E0A4
:1006600014ED00E0002808DB420900F01F00012320
:1006700003FA00F0014B43F82200704700E100E06C
:100680000268D3B2103B0B49A1FB03131B090A49B3
:10069000C95CC165032B06D822F47F7222F00302E5
:1006A0008265806D704722F47F7222F0030204326B
:1006B0008265F6E7ABAAAAAABC2A0008836A826907
:1006C00092B9012B0AD01BB1022B01D00020704738
:1006D000C36A13F0807F2CD100207047C36AB3F146
:1006E000C07F28D000207047B2F5005F05D0022BF4
:1006F00029D9032B15D000207047032B03D8DFE83E
:1007000003F01C041C0A00207047C36A13F0807FAA
:1007100015D100207047C36AB3F1C07F11D000200B
:100720007047C36A13F0807F01D00120704700201A
:100730007047012070470120704701207047012059
:1007400070470120704701207047000070B50446D3
:10075000FFF73EFF002C5DD00546002384F83430BF
:10076000022384F835302268136823F001031360F4
:1007700023681A6812F0010F0AD0FFF729FF401B07
:100780000528F5D920236365032084F8350070BD62
:100790001A68214911406268A0680243E068024378
:1007A0002069024360690243A0690243E069024391
:1007B000206A02430A43616A042916D01A60266837
:1007C000756925F00705636A1D43042B12D0756116
:1007D0002046FFF755FFE26D3F23934083600020E2
:1007E0006065012384F8353070BDE16A206B0143F8
:1007F0000A43E3E7A36A1D43E36A002BE7D02046E0
:10080000FFF75CFF0028E2D040236365012084F8F5
:10081000350070BD012070BD3F8010F0F0B583B091
:10082000044600230193724B1D68724BA3FB0535F0
:10083000AD0A876D3E68C26D082393401E4210D0FA
:1008400003681A6812F0040F0BD01A6822F0040231
:100850001A60C26D08239340BB60436D43F00103EF
:100860004365E26D012393401E4209D0226852691C
:1008700012F0800F04D0BB60636D43F00203636528
:10088000E26D042393401E4209D02268126812F0E0
:10089000020F04D0BB60636D43F004036365E26D37
:1008A000102393401E4224D02268126812F0080FD1
:1008B0001FD0BB6023681A6812F4802F0DD01B680C
:1008C00013F4002F04D1236C9BB12046984710E00D
:1008D000A36C73B1204698470BE01A6812F4807F2E
:1008E00003D11A6822F008021A60236C0BB120466B
:1008F0009847E26D202393401E4255D0226812682B
:1009000012F0100F50D0BB6094F83530DBB2052BDD
:100910000ED023681A6812F4802F33D01B6813F4AA
:10092000002F2AD1636C002B3ED0204698473BE035
:100930002268136823F0160313602268536923F0BA
:1009400080035361236CA3B12268136823F008036A
:100950001360E26D3F239340BB60002384F8343082
:10096000012384F83530236D002B3FD02046984773
:100970003CE0A36C002BE7D1EBE7E36BA3B120468F
:10098000984711E01A6812F4807F09D11A6822F0A2
:1009900010021A60002384F83430012384F83530C3
:1009A000E36B0BB120469847636DFBB1636D13F0A9
:1009B000010F17D0052384F835302268136823F01F
:1009C00001031360019B013301939D4204D323680B
:1009D0001B6813F0010FF5D1002384F83430012394
:1009E00084F83530E36C0BB12046984703B0F0BD76
:1009F0000C000020B5814E1B00230F2B00F2DF807E
:100A0000F0B583B050E04FEAD30C0CF1080C50F86D
:100A10002C5003F0070E4FEA8E0E0F2606FA0EF644
:100A200025EA06050E6906FA0EF6354340F82C5005
:100A30006FE0072600E0002606FA0EF63543023284
:100A40005F4E46F822505F4A1568E24305EA020607
:100A50004F6817F4803F01D044EA0506594D2E60D7
:100A60006D6802EA05064F6817F4003F01D044EABA
:100A70000506544D6E60AD6802EA05064F6817F42E
:100A8000801F01D044EA05064E4DAE60ED682A4055
:100A90004E6816F4001F01D044EA0502494CE2609A
:100AA00001330F2B00F2898001229A400C68144018
:100AB000A242F5D14D686E1E012E03D9112D01D031
:100AC000122D15D185684FEA430E032707FA0EF75A
:100AD00025EA0705CE6806FA0EF6354385604568B7
:100AE00025EA02024D68C5F300159D402A43426085
:100AF000C6685F000322BA40D24316408D68BD40ED
:100B00002E43C6604D68022D3FF47DAF122D3FF499
:100B10007AAF05682A404D6805F00305BD402A43B9
:100B200002604A6812F0805FBAD000220192264A21
:100B3000556C45F480455564526C02F48042019234
:100B4000019A9A08961C1E4D55F8265003F003068C
:100B50004FEA860E0F2606FA0EF625EA06051B4F0B
:100B6000B8423FF468AF1A4EB0421AD006F580661C
:100B7000B04218D006F58066B04216D006F5806601
:100B8000B04214D006F58066B04212D006F58066F9
:100B9000B04210D006F58066B0423FF44AAF082656
:100BA0004AE7012648E7022646E7032644E70426EB
:100BB00042E7052640E706263EE703B0F0BD704752
:100BC00000380140003C0140003802400000024073
:100BD0000004024012B909048161704781617047C5
:100BE000436931EA030301D08161704709048161DF
:100BF00070470000002800F0E48170B582B0044620
:100C0000036813F0010F3BD0A74B9B6803F00C0364
:100C1000042B2CD0A44B9B6803F00C03082B21D091
:100C20006368B3F5803F4FD0B3F5A02F52D09E4BF1
:100C30001A6822F480321A601A6822F480221A603C
:100C40006368002B50D0FFF7C3FC0546964B1B682A
:100C500013F4003F14D1FFF7BBFC401B6428F5D907
:100C60000320B3E1904B5B6813F4800FD8D08E4B18
:100C70001B6813F4003F03D06368002B00F0A381CE
:100C8000236813F0020F55D0874B9B6813F00C0FAD
:100C90003ED0854B9B6803F00C03082B33D0E368F0
:100CA000002B68D00122814B1A60FFF791FC0546AA
:100CB0007D4B1B6813F0020F54D1FFF789FC401BDA
:100CC0000228F5D9032081E1774A136843F4803381
:100CD0001360B5E7744B1A6842F480221A601A68F0
:100CE00042F480321A60ABE7FFF772FC05466E4BA8
:100CF0001B6813F4003FC3D0FFF76AFC401B642855
:100D0000F5D9032062E1684B5B6813F4800FC6D10C
:100D1000654B1B6813F0020F04D0E368012B01D070
:100D2000012053E1604A136823F0F803216943EA84
:100D3000C1031360236813F0080F40D0636963B3E5
:100D400001225B4B1A60FFF743FC0546564B5B6F75
:100D500013F0020F33D1FFF73BFC401B0228F5D9FB
:100D6000032033E1504A136823F0F803216943EA72
:100D7000C1031360DEE700224C4B1A60FFF728FC2A
:100D80000546494B1B6813F0020FD3D0FFF720FC38
:100D9000401B0228F5D9032018E10022444B1A60B9
:100DA000FFF716FC0546404B5B6F13F0020F06D0B1
:100DB000FFF70EFC401B0228F5D9032006E123684B
:100DC00013F0040F79D0384B1B6C13F0805F33D1D4
:100DD00000230193344B1A6C42F080521A641B6C4E
:100DE00003F080530193019B0125324B1B6813F4E0
:100DF000807F23D0A368012B34D0052B38D02A4B19
:100E00001A6F22F001021A671A6F22F004021A67A1
:100E1000A368002B36D0FFF7DBFB0646224B1B6F87
:100E200013F0020F48D1FFF7D3FB801B41F2883348
:100E30009842F3D90320C9E00025D6E71D4A13687C
:100E400043F480731360FFF7C3FB0646194B1B681E
:100E500013F4807FCED1FFF7BBFB801B0228F5D9AE
:100E60000320B3E0104A136F43F001031367CFE789
:100E70000D4B1A6F42F004021A671A6F42F001021A
:100E80001A67C5E7FFF7A4FB0646074B1B6F13F075
:100E9000020F11D0FFF79CFB801B41F28833984270
:100EA000F3D9032092E000BF00380240000047421F
:100EB000800E474200700040EDB9A369002B00F09E
:100EC0008480454A926802F00C02082A51D0022B15
:100ED00017D00022414B1A60FFF77AFB04463E4BC5
:100EE0001B6813F0007F42D0FFF772FB001B022843
:100EF000F5D903206AE0384A136C23F08053136459
:100F0000DBE70022354B1A60FFF762FB0546324BE8
:100F10001B6813F0007F06D0FFF75AFB401B022826
:100F2000F5D9032052E0E369226A1343626A43EA77
:100F30008213A26A5208013A43EA0243E26A43EA90
:100F40000263254A53600122244B1A60FFF740FBDD
:100F50000446214B1B6813F0007F06D1FFF738FBD6
:100F6000001B0228F5D9032030E000202EE00020ED
:100F70002CE0012B2CD0184B5B6803F48001E26954
:100F8000914201D0012021E003F03F02216A8A4210
:100F900001D001201AE0616A47F6C0721A408A4205
:100FA00001D0012012E003F44032A16A8A4201D04C
:100FB00001200BE003F07063E26A93420AD0012043
:100FC00004E001207047012000E0002002B070BD65
:100FD0000120FBE70020F9E70038024060004742AB
:100FE0000122014B1A6070474C004742F8B5314B63
:100FF0009B6803F00C03042B59D0082B01D02E481A
:10100000F8BD2C4B5A6802F03F025B6813F4800F66
:101010002AD0284B5B68C3F388131E4600275C0167
:101020000025E41A65EB0705A90141EA9461A001D6
:10103000001B61EB0501CB0043EA5073C400A0190B
:1010400043EB07014B0243EAD053440220461946C2
:101050000023FFF7D3F8174B5B68C3F30143013359
:101060005B00B0FBF3F0F8BD124B5B68C3F3881371
:101070001E4600275C010025E41A65EB0705A9015F
:1010800041EA9461A001001B61EB0501CB0043EA3A
:101090005073C400A01943EB07018B0243EA90533D
:1010A0008402204619460023FFF7A8F8D3E7034837
:1010B000F8BD00BF003802400024F40000127A009E
:1010C000002800F09E8070B50446504B1B6803F06A
:1010D0000F038B4209D2CBB24C4A1370136803F052
:1010E0000F03994201D0012070BD236813F0020F55
:1010F00017D013F0040F04D0454A936843F4E0532B
:101100009360236813F0080F04D0414A936843F4B6
:10111000604393603E4A936823F0F003A068034362
:1011200093600D46236813F0010F32D06368012BE2
:1011300021D09A1E012A25D9354A126812F0020FD1
:1011400061D033498A6822F0030213438B60FFF7B2
:101150003FFA06462E4B9B6803F00C036268B3EB24
:10116000820F16D0FFF734FA801B41F28833984281
:10117000F0D9032070BD264A126812F4003FE0D176
:10118000012070BD224A126812F0007FD9D10120DF
:1011900070BD1E4B1B6803F00F039D4209D2EAB2DB
:1011A0001A4B1A701B6803F00F039D4201D00120F7
:1011B00070BD236813F0040F06D0154A936823F41A
:1011C000E053E1680B439360236813F0080F07D0E6
:1011D0000F4A936823F46043216943EAC103936093
:1011E000FFF704FF0A4B9B68C3F30313094AD35C60
:1011F000D840094B1860094B186801F097FB002094
:1012000070BD01207047012070BD00BF003C02404E
:1012100000380240E02A00080C00002004000020F2
:10122000014B1868704700BF0C00002008B5FFF79D
:10123000F7FF044B9B68C3F38223034AD35CD84077
:1012400008BD00BF00380240F02A000808B5FFF7CB
:10125000E7FF044B9B68C3F34233034AD35CD84097
:1012600008BD00BF00380240F02A00080F230360C9
:101270000B4B9A6802F0030242609A6802F0F00297
:1012800082609A6802F4E052C2609B68DB0803F453
:10129000E0530361034B1B6803F00F030B607047BF
:1012A00000380240003C02407047000008B5064B81
:1012B000DB6813F0800F00D108BDFFF7F5FF802237
:1012C000024B1A70F8E700BF003802400E380240A7
:1012D00070470268D36843F00103D36002689368E3
:1012E00003F00703062B03D0136843F001031360D8
:1012F00000207047704770477047704710B504462C
:1013000003681A6912F0020F11D0DA6812F0020FA6
:101310000DD06FF002021A610123037703689B6905
:1013200013F0030F70D0FFF7E6FF00232377236845
:101330001A6912F0040F12D0DA6812F0040F0ED0FE
:101340006FF004021A610223237723689B6913F468
:10135000407F5FD02046FFF7CEFF0023237723682E
:101360001A6912F0080F12D0DA6812F0080F0ED0C6
:101370006FF008021A61042323772368DB6913F0F6
:10138000030F4ED02046FFF7B6FF002323772368D4
:101390001A6912F0100F12D0DA6812F0100F0ED086
:1013A0006FF010021A61082323772368DB6913F4B6
:1013B000407F3DD02046FFF79EFF00232377236820
:1013C0001A6912F0010F03D0DA6812F0010F36D15A
:1013D00023681A6912F0800F03D0DA6812F0800FC8
:1013E00034D123681A6912F0400F03D0DA6812F082
:1013F000400F32D123681A6912F0200F03D0DA6847
:1014000012F0200F30D110BDFFF774FF2046FFF718
:1014100073FF8AE72046FFF76DFF2046FFF76CFF5A
:101420009BE72046FFF766FF2046FFF765FFACE726
:101430002046FFF75FFF2046FFF75EFFBDE76FF036
:1014400001021A61204601F0EDF9C1E76FF0800258
:101450001A61204600F090F8C3E76FF040021A616D
:101460002046FFF74AFFC5E76FF020021A612046C9
:1014700000F081F8C7E700000368314A904212D0BB
:10148000B0F1804F0FD0A2F57C4290420BD002F514
:101490008062904207D002F58062904203D002F54C
:1014A0007842904203D123F070034A681343244AE0
:1014B00090422AD0B0F1804F27D0A2F57C429042D2
:1014C00023D002F5806290421FD002F580629042E4
:1014D0001BD002F57842904217D002F5705290422C
:1014E00013D002F5806290420FD002F580629042E4
:1014F0000BD0A2F59832904207D002F5806290425C
:1015000003D002F58062904203D123F44073CA688D
:10151000134323F080034A69134303608B68C3625B
:101520000B688362064B984206D003F580639842AD
:1015300002D00123436170470B690363F9E700BFE1
:1015400000000140A8B110B5044690F83D305BB1F1
:10155000022384F83D30211D2068FFF78DFF012311
:1015600084F83D30002010BD80F83C30FFF7B0FE1D
:10157000EEE701207047704770470000F8B5044659
:101580000268136923F44053C1680B4313618368F5
:101590000269134342691343C26913430168CA686D
:1015A00022F4164222F00C021343CB600268536906
:1015B00023F4407381690B435361C369B3F5004F52
:1015C00034D00368604A934200F0928002F5806252
:1015D000934200F08D80FFF729FE25680021061850
:1015E00041EB010736184F41FB0043EA5673F20006
:1015F00016461F4663689A009B0F80197941FEF7D3
:10160000FDFD524CA4FB00325109642202FB110281
:1016100013013233A4FB03235B0903F0F00202EB56
:10162000011203F00F031344AB60F8BD0368464A90
:10163000934230D002F5806293422CD0FFF7F6FD42
:1016400025680021061841EB010736184F41FB00C1
:1016500043EA5673F20016461F466268002392184A
:101660005B4180197941FEF7C9FD384CA4FB00327B
:101670005109642202FB1102D3003233A4FB03237D
:101680005B095A0002F4F87202EB011203F007033F
:101690001344AB60F8BDFFF7D9FD2568002106189B
:1016A00041EB010736184F41FB0043EA5673F20045
:1016B00016461F466268002392185B4180197941E3
:1016C000FEF79CFD214CA4FB00325109642202FB71
:1016D0001102D3003233A4FB03235B095A0002F446
:1016E000F87202EB011203F007031344AB60F8BD7C
:1016F000FFF7ACFD25680021061841EB01073618FD
:101700004F41FB0043EA5673F20016461F466368DA
:101710009A009B0F80197941FEF770FD0B4CA4FBDA
:1017200000325109642202FB110213013233A4FB7F
:1017300003235B0903F0F00202EB011203F00F0335
:101740001344AB60F8BD00BF001001401F85EB5192
:1017500058B310B5044690F839300BB3242384F8FD
:1017600039302268D36823F40053D3602046FFF752
:1017700005FF2268136923F49043136122685369BB
:1017800023F02A0353612268D36843F40053D360E3
:101790000020E063202384F8393084F83A3010BD0B
:1017A00080F8383001F06EF8D8E7012070478428BF
:1017B00001D0033070470020704708B500F0CEFA22
:1017C000002008BD2DE9F04387B004460F46456967
:1017D000BDB18669AEB1D0F80480D0F80090B0F900
:1017E0000800FFF7E4FF22690296019500903B464E
:1017F0004946404600F0D6F90590059807B0BDE887
:10180000F08365682668D4F81080B4F90800FFF703
:10181000CEFF05AB019300903B461FFA88F231469C
:10182000284600F0F9F90128E7D00020E6E700F1AA
:10183000080343604FF0FF328260C36003610023FE
:101840000360704700230361704743684B609A68E8
:101850008A609A6851609960086103680133036087
:10186000704730B40D68B5F1FF3F02D000F10802B7
:1018700002E0026904E01A4653681C68A542FAD2E5
:1018800053684B6099608A60516008610368013356
:10189000036030BC70470369426881689160826868
:1018A000416851605A68904206D0002202611A686D
:1018B000013A1A601868704782685A60F5E70000BC
:1018C000074B9B6A1B6833B1054B9A6AD268D26892
:1018D0005268DA6270474FF0FF32014BDA627047AC
:1018E000340000202DE9F04780469946089D099F65
:1018F0000A9C266B02F18042013A06EB820626F032
:10190000070689B30A4600230F2B07D8D05CE118DD
:1019100081F83400D15C09B10133F5E7002384F884
:101920004330062D00D90625E56265644FF0000AB4
:10193000C4F848A0201DFFF785FF04F11800FFF749
:1019400081FF2461C5F10705A5616462C4F84CA05C
:1019500084F850A04A464146304600F0EFFB206034
:1019600007B13C60BDE8F087002384F83430D8E745
:1019700070B5002407E004EB84029300104818447B
:10198000FFF755FF0134062CF5D90E4C04F1BC06C7
:101990003046FFF74CFF04F1D0052846FFF747FF1C
:1019A00004F11400FFF743FF04F1E400FFF73FFFE9
:1019B0002046FFF73CFFA662C4F8F85070BD00BF98
:1019C000640000203400002038B5054600F0E2FB3A
:1019D000264BD3F8FC200132C3F8FC20D3F80031A9
:1019E000002B38D0214BD3F804314BB91F4BD3F81F
:1019F0000031DA6AEB6A9A4202D81C4BC3F80051F4
:101A00001A4CD4F808310133C4F80831EB6A0122CA
:101A10009A40D4F80C110A43C4F80C2104F13000A8
:101A200003EB83039A00291D1044FFF70EFF00F01B
:101A3000D3FBD4F804316BB1D4F80031DA6AEB6A25
:101A40009A4207D24FF08052094B1A60BFF34F8F72
:101A5000BFF36F8F38BD054BC3F80051D3F8FC308E
:101A6000012BCDD1FFF784FFCAE700BF340000206F
:101A700004ED00E010B5044690F8513063B1012B3D
:101A800011D0022B12D04FF0500383F31188BFF313
:101A90006F8FBFF34F8FFEE7006B00F07FFD204696
:101AA00000F07CFD10BD00F079FD10BD10BD000000
:101AB00038B517E000F06EFB0D4CD4F8F030DD685F
:101AC000281DFFF7E8FED4F8FC30013BC4F8FC30D9
:101AD000D4F81031013BC4F8103100F07DFB2846EA
:101AE000FFF7C8FF024BD3F81031002BE2D138BD0D
:101AF0003400002008B5FFF7DBFF064B1B6B012B02
:101B0000F9D94FF08052044B1A60BFF34F8FBFF3E7
:101B10006F8FF0E73400002004ED00E070B504465C
:101B20000E461F4BD3F81451D3F800010430FFF7D1
:101B3000B2FE60B91A4BD3F80021D16A012202FA31
:101B400001F1D3F80C2122EA0102C3F80C21B4F10F
:101B5000FF3F12D02C44124BD3F800315C60A542F9
:101B600014D80F4DA86AD5F800110431FFF779FE9B
:101B7000EB6A9C4200D2EC6270BD002EEAD00848AD
:101B8000D0F800110431FFF760FE70BD044BD3F8AC
:101B9000F800D3F800110431FFF763FE70BD00BFF9
:101BA0003400002070B586B00B9D0C9C75B1B4B1AB
:101BB00054260496049E542E1AD04FF0500383F3FB
:101BC0001188BFF36F8FBFF34F8FFEE74FF05003C5
:101BD00083F31188BFF36F8FBFF34F8FFEE74FF092
:101BE000500383F31188BFF36F8FBFF34F8FFEE76E
:101BF000049E2563022584F8515000250395029424
:101C000005AD01950A9D0095FFF76CFE2046FFF794
:101C1000DBFE059806B070BD2DE9F04385B00646A1
:101C20000F4615469846900000F032FC10B38146EE
:101C3000542000F02DFC0446C0B1C0F83090DCB157
:101C4000002384F85130039302940D9B01930C9B65
:101C5000009343462A4639463046FFF743FE204666
:101C6000FFF7B2FE012005B0BDE8F083484600F062
:101C700095FCE4E70024E2E74FF0FF30F3E70000D3
:101C800070B5044600F086FA002C3DD0261D304683
:101C9000FFF701FE88B9E26A02EB820399002D4B3F
:101CA0000B441B6B4BB9012303FA02F22949D1F80B
:101CB0000C3123EA0203C1F80C31A36A1BB104F111
:101CC0001800FFF7E8FD234BD3F808210132C3F8D1
:101CD0000821D3F800319C421AD01E4AD2F8FC30B9
:101CE000013BC2F8FC302046FFF7C4FEFFF7E8FDD9
:101CF00000F072FA174BD3F8043123B1154BD3F827
:101D000000319C4210D070BD124BD3F80041BDE7AA
:101D1000104D314605F1E400FFF797FDD5F810317D
:101D20000133C5F81031E3E70A4BD3F8183143B15A
:101D30004FF0500383F31188BFF36F8FBFF34F8FC2
:101D4000FEE74FF08052044B1A60BFF34F8FBFF392
:101D50006F8FD8E73400002004ED00E010B588B0A4
:101D600000240594069407AA06A905A800F04EFCD5
:101D7000059B0293069B019300942346079A104902
:101D80001048FFF70FFF18B101231BB908B010BDB1
:101D90000023FAE74FF0500383F31188BFF36F8FEE
:101DA000BFF34F8F084B4FF0FF32DA620122C3F8C6
:101DB00004210022C3F8142100F08EFAE6E700BFE8
:101DC000102B0008F51A000834000020034AD2F84E
:101DD00018310133C2F81831704700BF34000020B9
:101DE0002DE9F041404BD3F81831002B6CD13E4B1C
:101DF000D3F814510135C3F81451CDB99B6A1B684F
:101E000043B14FF0500383F31188BFF36F8FBFF3DB
:101E10004F8FFEE7344B9A6AD3F8F8109962C3F8F3
:101E2000F820D3F81C210132C3F81C21FFF748FD2C
:101E30002D4BDB6A9D423DD200242B4AD2F8003163
:101E4000DB6A03EB830399000A44136B012B42D92D
:101E5000012440E00124244B9B6A1B6863B3224B9E
:101E60009B6ADB68DE6873689D422AD306F104082A
:101E70004046FFF710FDB36A1BB106F11800FFF7EB
:101E80000AFDF36A01229A40174FD7F80C110A4352
:101E9000C7F80C2107F1300003EB83039A00414699
:101EA0001044FFF7D2FCF26AD7F80031DB6A9A429D
:101EB000D0D2D0E70024CEE74FF0FF320A4BDA62EF
:101EC000BBE7094AD362B8E7074AD2F820310133A9
:101ED000C2F820310024044BD3F8243103B101248B
:101EE0002046BDE8F08100BF340000203A4BD3F813
:101EF000183143B94FF0500383F31188BFF36F8F4C
:101F0000BFF34F8FFEE770B500F044F9324BD3F8C2
:101F10001821013AC3F81821D3F81831002B57D1F2
:101F20002D4BD3F8FC3023B9002400F055F920469E
:101F300070BD0024284B5B692BB3274D2B6ADC68EE
:101F400004F11800FFF7A7FC261D3046FFF7A3FC9D
:101F5000E36A01229A40D5F80C110A43C5F80C2116
:101F600005F1300003EB83039A0031461044FFF77C
:101F70006CFCE26AD5F80031DB6A9A42DAD30122BE
:101F8000C5F82421D6E70CB1FFF79AFC124BD3F821
:101F900020417CB9104BD3F82431DBB14FF0805293
:101FA0000E4B1A60BFF34F8FBFF36F8F0124BCE756
:101FB000013C08D0FFF714FF0028F9D00122064B9E
:101FC000C3F82421F4E70022034BC3F82021E1E702
:101FD0000024AAE70024A8E73400002004ED00E074
:101FE00010B5B0B10446104BD3F8183143B14FF0DF
:101FF000500383F31188BFF36F8FBFF34F8FFEE75A
:10200000FFF7E4FE00212046FFF788FDFFF76EFF93
:1020100000E0002038B94FF08052044B1A60BFF343
:102020004F8FBFF36F8F10BD3400002004ED00E030
:10203000224BD3F81831CBB9204A0023C2F82431FF
:10204000D2F80C31B3FA83F3DBB2C3F11F0303EB15
:10205000830081000A44126B6AB94FF0500383F386
:102060001188BFF36F8FBFF34F8FFEE70122134B31
:10207000C3F82421704710B4104A9900CC18A0006E
:102080001044446B6468446330321944880001464C
:102090000830024494420BD0084903EB83039A00B2
:1020A0000A44536BDB68C1F800315DF8044B70479C
:1020B0006068024A0A445063EEE700BF3400002023
:1020C00082B0002301930D4B1B68B3F1FF3F08D092
:1020D0004FF0500383F31188BFF36F8FBFF34F8F1F
:1020E000FEE74FF0500383F31188BFF36F8FBFF308
:1020F0004F8F019B002BFCD002B0704708000020DE
:1021000008480068006880F308884FF0000080F3FA
:10211000148862B661B6BFF34F8FBFF36F8F00DFD5
:1021200000BF000008ED00E0DFF80C00016841F49A
:10213000700101607047000088ED00E04FF080738F
:1021400040F8043C21F0010140F8081C054B40F820
:102150000C3C40F8202C6FF0020340F8243C44383B
:10216000704700BFC1200008000000000000000010
:10217000074B19680868B0E8F04F80F30988BFF38F
:102180006F8F4FF0000080F311887047AFF300802D
:10219000340100204FF0500383F31188BFF36F8F99
:1021A000BFF34F8F0A4A136801331360012B0DD11F
:1021B000084B1B6813F0FF0F08D04FF0500383F358
:1021C0001188BFF36F8FBFF34F8FFEE7704700BFDB
:1021D0000800002004ED00E0094B1B6843B94FF0F4
:1021E000500383F31188BFF36F8FBFF34F8FFEE768
:1021F000013B034A13600BB983F31188704700BF9A
:1022000008000020000000000000000000000000A6
:10221000EFF30980BFF36F8F154B1A681EF0100F94
:1022200008BF20ED108A20E9F04F10602DE9090069
:102230004FF0500080F31188BFF34F8FBFF36F8FC3
:10224000FFF7F6FE4FF0000080F3118809BC196813
:102250000868B0E8F04F1EF0100F08BFB0EC108A0D
:1022600080F30988BFF36F8F704700BFAFF3008022
:102270003401002008B54FF0500383F31188BFF3F9
:102280006F8FBFF34F8FFFF7ABFD18B14FF0805248
:10229000024B1A60002383F3118808BD04ED00E0AF
:1022A000084A0023136008490B60084B1B68084963
:1022B000A1FB03139B09013B06490B600723136035
:1022C000704700BF10E000E018E000E00C000020C4
:1022D000D34D621014E000E0394B1A68394B9A4232
:1022E00008D14FF0500383F31188BFF36F8FBFF312
:1022F0004F8FFEE7324B1A68334B9A4208D14FF0AA
:10230000500383F31188BFF36F8FBFF34F8FFEE746
:1023100010B582B02D4B1A78D2B20192FF221A70FA
:102320001B78DBB28DF803309DF8033003F05003C7
:10233000274A13700723536009E0254A5368013B7D
:1023400053609DF803305B00DBB28DF803309DF8DD
:10235000033013F0800FF0D11D4B5B68032B08D0C6
:102360004FF0500383F31188BFF36F8FBFF34F8F8C
:10237000FEE71B0203F4E063154A5360019BDBB2E6
:10238000124A1370134B1A6842F470021A601A68EA
:1023900042F070421A60FFF783FF00240E4B1C606E
:1023A000FFF7C2FE0D4A136843F040431360FFF786
:1023B000A7FEFFF73DFEFFF783FE204602B010BDEB
:1023C00000ED00E071C20F4170C20F4100E400E077
:1023D0005C01002020ED00E00800002034EF00E068
:1023E000134A12F0070F20D0D11D21F00701C1F5CB
:1023F000705313440A460F49C1F818290020C1F848
:102400001C091344083B23F00703C1F82039586026
:102410001860981A50601360C1F82409C1F828099F
:102420004FF00043C1F82C3970474FF47053E2E786
:10243000640100204C34002010B4134B1A6882420F
:102440001CD359685C18A04203D14068014459600C
:10245000184641684418A24214D10C4CD4F82049C3
:10246000A2420DD05268114441601A68126802609D
:10247000984200D018605DF8044B70471346DDE7C2
:102480000460F5E70260F3E7643D00204C3400206F
:1024900070B50446FFF79AFC3F4BD3F82039C3B11F
:1024A0003D4BD3F82C391C426CD1ACB1083414F03C
:1024B000070F11D024F00704083404F007035BB1C0
:1024C0004FF0500383F31188BFF36F8FBFF34F8F2B
:1024D000FEE7FFF785FFE3E7002C55D02E4BD3F83E
:1024E00028399C4252D82C4BD3F8185903F61813AC
:1024F00001E02B4615466A68944202D92A68002AF0
:10250000F7D1254AD2F82029954241D01E680836D5
:102510002A681A606B681B1B102B10D9281910F041
:10252000070F08D04FF0500383F31188BFF36F8F6C
:10253000BFF34F8FFEE743606C60FFF77DFF696874
:10254000154AD2F828395B1AC2F82839D2F824295A
:10255000934202D2104AC2F824390F4BD3F82C39D7
:102560000B436B6000232B60FFF7C0FC16F0070FD6
:1025700010D04FF0500383F31188BFF36F8FBFF378
:102580004F8FFEE70026EFE70026EDE70026EBE79A
:102590000026E9E7304670BD4C34002098B338B5CA
:1025A0000446A0F1080550F8042C1749D1F82C195D
:1025B0000A4208D14FF0500383F31188BFF36F8FA5
:1025C000BFF34F8FFEE750F8080C40B14FF05003B7
:1025D00083F31188BFF36F8FBFF34F8FFEE722EABB
:1025E000010244F8042CFFF7F1FB54F8041C064ADE
:1025F000D2F828390B44C2F828392846FFF71CFFC7
:10260000FFF774FC38BD70474C340020034B036067
:1026100054330B6080231360704700BF7C3D002063
:1026200030B58BB00024059406940794089409945F
:102630000194274B1A6B42F080021A631A6B02F066
:1026400080020192019A02941A6B42F004021A630A
:102650001A6B02F004020292029A03941A6B42F07F
:1026600001021A631A6B02F001020392039A0494A6
:102670001A6B42F008021A631B6B03F00803049301
:10268000049B144D224606212846FEF7A3FA062392
:102690000593012306930794089405A92846FEF79D
:1026A000ABF9082305930694079405A92846FEF77D
:1026B000A3F90423059302230693079403230893A5
:1026C0000C23099305A90448FEF796F90BB030BD19
:1026D0000038024000080240000C024000B583B000
:1026E00000220192094B196B41F4001119631B6B15
:1026F00003F400130193019B05211020FDF780FFD7
:102700001020FDF7AFFF03B05DF804FB0038024076
:1027100008B50848084B03604FF4E13343600023D9
:102720008360C36003610C2242618361C361FFF770
:102730000FF808BDD03F00200044004008B5FDF769
:10274000FDFE0020FFF79CFA08BD000070B594B0B4
:102750003022002108A800F09DF90024039404947D
:1027600005940694079401941B4B1A6C42F0805216
:102770001A641B6C03F080530193019B0294174B66
:102780001A6842F480421A601B6803F48043029383
:10279000029B012508954FF48033099302260E967B
:1027A0004FF480030F93042310936022119212932D
:1027B000139308A8FEF71EFA0F23039304960594BB
:1027C0004FF4805306930794294603A8FEF778FC3C
:1027D000FEF706FC14B070BD0038024000700040E7
:1027E00000B589B0FDF7CEFEFFF7B0FFFFF718FF89
:1027F000FFF774FFFFF78CFF01AC084D0FCD0FC43E
:1028000095E8070084E80700002101A8FEF7DAFF39
:10281000034B1864FEF7D1FFFEE700BFC42A00088F
:10282000D03F002008B50268034B9A4200D008BD93
:10283000FDF7C2FEFBE700BF00200040704700002C
:1028400000B583B0002200920D4B596C41F48041D9
:102850005964596C01F48041009100990192196CFE
:1028600041F0805119641B6C03F080530193019B6C
:102870000F216FF00100FDF7C3FE03B05DF804FB0C
:102880000038024030B589B00023039304930593C8
:10289000069307930268214B9A4201D009B030BDDC
:1028A00004460025019503F5FA331A6C42F4003210
:1028B0001A641A6C02F400320192019A02951A6BA2
:1028C00042F001021A631B6B03F001030293029BA7
:1028D0000C230393022304930323069307230793F4
:1028E00003A90F48FEF788F80E480F4B03604FF01E
:1028F000006343608560C5604FF480630361456198
:102900008561C56105624562FDF720FF18B9054B79
:1029100063639C63C2E7FFF791FFF8E70044004060
:1029200000000240184000208860024010B588B0C6
:10293000002201462D20FDF763FE2D20FDF792FEBB
:1029400000240194144B1A6C42F480721A641B6CBC
:1029500003F480730193019B02A903A8FEF786FC90
:10296000FEF764FC43000D48A0FB03239B0C013BD6
:102970000B480C4A026040F2E732C26043600461D7
:102980008460FEF7DFFD10B1012008B010BD0448DF
:10299000FEF79FFCF9E700BF0038024083DE1B43CF
:1029A0007C4000200020004008B5FEF77FFC08BDF9
:1029B000FEE7FEE7FEE7FEE77047000008B50248C5
:1029C000FDF72CFF08BD00BF1840002008B50248E5
:1029D000FEF794FC08BD00BF7C400020054BD3F8F7
:1029E000882042F47002C3F888204FF000629A6099
:1029F000704700BF00ED00E0DFF834D0002103E0B5
:102A00000C4B5B58435004310B480C4B42189A4214
:102A1000F6D30B4A02E0002342F8043B094B9A42EA
:102A2000F9D3FFF7DBFF00F011F8FFF7D9FE70478D
:102A300000000220342B00080000002010000020BD
:102A400010000020BC400020FEE7000070B50D4ED5
:102A50000D4CA41BA4100025A54209D10B4E0C4C13
:102A600000F020F8A41BA4100025A54205D170BDDC
:102A700056F8253098470135EEE756F82530984747
:102A80000135F2E72C2B00082C2B00082C2B00081A
:102A9000302B000802440346934200D1704703F8EC
:102AA000011BF9E7F8B500BFF8BC08BC9E467047AB
:0C2AB000F8B500BFF8BC08BC9E4670479B
:102ABC000006101600061016182B00083D270008FB
:102ACC00000000000000000080000000000000007A
:102ADC0000000000000000000000000001020304E0
:102AEC0006070809000000000102030450726F631E
:102AFC00657373310000000050726F63657373323D
:102B0C000000000049444C4500000000646566610B
:082B1C00756C745461736B00C9
:082B240008D7FF7F010000004B
:042B2C00B5010008E7
:042B30009101000807
:102B34000100000010000000AAAAAAAA0024F400C0
:04000005080029F9CD
:00000001FF
